{
    "contractName": "Credential",
    "abi": [
        {
            "anonymous": false,
            "inputs": [
                {
                    "indexed": true,
                    "internalType": "address",
                    "name": "holder",
                    "type": "address"
                },
                {
                    "indexed": false,
                    "internalType": "string",
                    "name": "credentialType",
                    "type": "string"
                },
                {
                    "indexed": false,
                    "internalType": "string",
                    "name": "metadata",
                    "type": "string"
                }
            ],
            "name": "CredentialIssued",
            "type": "event"
        },
        {
            "inputs": [
                {
                    "internalType": "address",
                    "name": "",
                    "type": "address"
                },
                {
                    "internalType": "uint256",
                    "name": "",
                    "type": "uint256"
                }
            ],
            "name": "credentials",
            "outputs": [
                {
                    "internalType": "address",
                    "name": "holderName",
                    "type": "address"
                },
                {
                    "internalType": "string",
                    "name": "credentialType",
                    "type": "string"
                },
                {
                    "internalType": "string",
                    "name": "metadata",
                    "type": "string"
                },
                {
                    "internalType": "address",
                    "name": "issuer",
                    "type": "address"
                }
            ],
            "stateMutability": "view",
            "type": "function",
            "constant": true
        },
        {
            "inputs": [
                {
                    "internalType": "address",
                    "name": "holder",
                    "type": "address"
                },
                {
                    "internalType": "string",
                    "name": "credentialType",
                    "type": "string"
                },
                {
                    "internalType": "string",
                    "name": "metadata",
                    "type": "string"
                }
            ],
            "name": "issueCredential",
            "outputs": [],
            "stateMutability": "nonpayable",
            "type": "function"
        },
        {
            "inputs": [
                {
                    "internalType": "address",
                    "name": "holder",
                    "type": "address"
                }
            ],
            "name": "getCredentials",
            "outputs": [
                {
                    "components": [
                        {
                            "internalType": "address",
                            "name": "holderName",
                            "type": "address"
                        },
                        {
                            "internalType": "string",
                            "name": "credentialType",
                            "type": "string"
                        },
                        {
                            "internalType": "string",
                            "name": "metadata",
                            "type": "string"
                        },
                        {
                            "internalType": "address",
                            "name": "issuer",
                            "type": "address"
                        }
                    ],
                    "internalType": "struct Credential.CredentialData[]",
                    "name": "",
                    "type": "tuple[]"
                }
            ],
            "stateMutability": "view",
            "type": "function",
            "constant": true
        }
    ],
    "bytecode": "0x608060405234801561000f575f80fd5b50610ee08061001d5f395ff3fe608060405234801561000f575f80fd5b506004361061003f575f3560e01c806303cb278a1461004357806384270608146100765780639f4ed4fb146100a6575b5f80fd5b61005d6004803603810190610058919061070c565b6100c2565b60405161006d94939291906107e3565b60405180910390f35b610090600480360381019061008b9190610834565b610251565b60405161009d91906109d8565b60405180910390f35b6100c060048036038101906100bb9190610b24565b6104b2565b005b5f602052815f5260405f2081815481106100da575f80fd5b905f5260205f2090600402015f9150915050805f015f9054906101000a900473ffffffffffffffffffffffffffffffffffffffff169080600101805461011f90610bd9565b80601f016020809104026020016040519081016040528092919081815260200182805461014b90610bd9565b80156101965780601f1061016d57610100808354040283529160200191610196565b820191905f5260205f20905b81548152906001019060200180831161017957829003601f168201915b5050505050908060020180546101ab90610bd9565b80601f01602080910402602001604051908101604052809291908181526020018280546101d790610bd9565b80156102225780601f106101f957610100808354040283529160200191610222565b820191905f5260205f20905b81548152906001019060200180831161020557829003601f168201915b505050505090806003015f9054906101000a900473ffffffffffffffffffffffffffffffffffffffff16905084565b60605f808373ffffffffffffffffffffffffffffffffffffffff1673ffffffffffffffffffffffffffffffffffffffff1681526020019081526020015f20805480602002602001604051908101604052809291908181526020015f905b828210156104a7578382905f5260205f2090600402016040518060800160405290815f82015f9054906101000a900473ffffffffffffffffffffffffffffffffffffffff1673ffffffffffffffffffffffffffffffffffffffff1673ffffffffffffffffffffffffffffffffffffffff16815260200160018201805461033390610bd9565b80601f016020809104026020016040519081016040528092919081815260200182805461035f90610bd9565b80156103aa5780601f10610381576101008083540402835291602001916103aa565b820191905f5260205f20905b81548152906001019060200180831161038d57829003601f168201915b505050505081526020016002820180546103c390610bd9565b80601f01602080910402602001604051908101604052809291908181526020018280546103ef90610bd9565b801561043a5780601f106104115761010080835404028352916020019161043a565b820191905f5260205f20905b81548152906001019060200180831161041d57829003601f168201915b50505050508152602001600382015f9054906101000a900473ffffffffffffffffffffffffffffffffffffffff1673ffffffffffffffffffffffffffffffffffffffff1673ffffffffffffffffffffffffffffffffffffffff1681525050815260200190600101906102ae565b505050509050919050565b5f808473ffffffffffffffffffffffffffffffffffffffff1673ffffffffffffffffffffffffffffffffffffffff1681526020019081526020015f2060405180608001604052808573ffffffffffffffffffffffffffffffffffffffff1681526020018481526020018381526020013373ffffffffffffffffffffffffffffffffffffffff16815250908060018154018082558091505060019003905f5260205f2090600402015f909190919091505f820151815f015f6101000a81548173ffffffffffffffffffffffffffffffffffffffff021916908373ffffffffffffffffffffffffffffffffffffffff16021790555060208201518160010190816105ba9190610da6565b5060408201518160020190816105d09190610da6565b506060820151816003015f6101000a81548173ffffffffffffffffffffffffffffffffffffffff021916908373ffffffffffffffffffffffffffffffffffffffff16021790555050508273ffffffffffffffffffffffffffffffffffffffff167f5e47cc5e78fcec6fad5ce55daef3ac5f5aaf88a7910c1b7bffcf5170dd15232a8383604051610661929190610e75565b60405180910390a2505050565b5f604051905090565b5f80fd5b5f80fd5b5f73ffffffffffffffffffffffffffffffffffffffff82169050919050565b5f6106a88261067f565b9050919050565b6106b88161069e565b81146106c2575f80fd5b50565b5f813590506106d3816106af565b92915050565b5f819050919050565b6106eb816106d9565b81146106f5575f80fd5b50565b5f81359050610706816106e2565b92915050565b5f806040838503121561072257610721610677565b5b5f61072f858286016106c5565b9250506020610740858286016106f8565b9150509250929050565b6107538161069e565b82525050565b5f81519050919050565b5f82825260208201905092915050565b5f5b83811015610790578082015181840152602081019050610775565b5f8484015250505050565b5f601f19601f8301169050919050565b5f6107b582610759565b6107bf8185610763565b93506107cf818560208601610773565b6107d88161079b565b840191505092915050565b5f6080820190506107f65f83018761074a565b818103602083015261080881866107ab565b9050818103604083015261081c81856107ab565b905061082b606083018461074a565b95945050505050565b5f6020828403121561084957610848610677565b5b5f610856848285016106c5565b91505092915050565b5f81519050919050565b5f82825260208201905092915050565b5f819050602082019050919050565b6108918161069e565b82525050565b5f82825260208201905092915050565b5f6108b182610759565b6108bb8185610897565b93506108cb818560208601610773565b6108d48161079b565b840191505092915050565b5f608083015f8301516108f45f860182610888565b506020830151848203602086015261090c82826108a7565b9150506040830151848203604086015261092682826108a7565b915050606083015161093b6060860182610888565b508091505092915050565b5f61095183836108df565b905092915050565b5f602082019050919050565b5f61096f8261085f565b6109798185610869565b93508360208202850161098b85610879565b805f5b858110156109c657848403895281516109a78582610946565b94506109b283610959565b925060208a0199505060018101905061098e565b50829750879550505050505092915050565b5f6020820190508181035f8301526109f08184610965565b905092915050565b5f80fd5b5f80fd5b7f4e487b71000000000000000000000000000000000000000000000000000000005f52604160045260245ffd5b610a368261079b565b810181811067ffffffffffffffff82111715610a5557610a54610a00565b5b80604052505050565b5f610a6761066e565b9050610a738282610a2d565b919050565b5f67ffffffffffffffff821115610a9257610a91610a00565b5b610a9b8261079b565b9050602081019050919050565b828183375f83830152505050565b5f610ac8610ac384610a78565b610a5e565b905082815260208101848484011115610ae457610ae36109fc565b5b610aef848285610aa8565b509392505050565b5f82601f830112610b0b57610b0a6109f8565b5b8135610b1b848260208601610ab6565b91505092915050565b5f805f60608486031215610b3b57610b3a610677565b5b5f610b48868287016106c5565b935050602084013567ffffffffffffffff811115610b6957610b6861067b565b5b610b7586828701610af7565b925050604084013567ffffffffffffffff811115610b9657610b9561067b565b5b610ba286828701610af7565b9150509250925092565b7f4e487b71000000000000000000000000000000000000000000000000000000005f52602260045260245ffd5b5f6002820490506001821680610bf057607f821691505b602082108103610c0357610c02610bac565b5b50919050565b5f819050815f5260205f209050919050565b5f6020601f8301049050919050565b5f82821b905092915050565b5f60088302610c657fffffffffffffffffffffffffffffffffffffffffffffffffffffffffffffffff82610c2a565b610c6f8683610c2a565b95508019841693508086168417925050509392505050565b5f819050919050565b5f610caa610ca5610ca0846106d9565b610c87565b6106d9565b9050919050565b5f819050919050565b610cc383610c90565b610cd7610ccf82610cb1565b848454610c36565b825550505050565b5f90565b610ceb610cdf565b610cf6818484610cba565b505050565b5b81811015610d1957610d0e5f82610ce3565b600181019050610cfc565b5050565b601f821115610d5e57610d2f81610c09565b610d3884610c1b565b81016020851015610d47578190505b610d5b610d5385610c1b565b830182610cfb565b50505b505050565b5f82821c905092915050565b5f610d7e5f1984600802610d63565b1980831691505092915050565b5f610d968383610d6f565b9150826002028217905092915050565b610daf82610759565b67ffffffffffffffff811115610dc857610dc7610a00565b5b610dd28254610bd9565b610ddd828285610d1d565b5f60209050601f831160018114610e0e575f8415610dfc578287015190505b610e068582610d8b565b865550610e6d565b601f198416610e1c86610c09565b5f5b82811015610e4357848901518255600182019150602085019450602081019050610e1e565b86831015610e605784890151610e5c601f891682610d6f565b8355505b6001600288020188555050505b505050505050565b5f6040820190508181035f830152610e8d81856107ab565b90508181036020830152610ea181846107ab565b9050939250505056fea264697066735822122008106c768c74327c397c829bdb777bf5f85e03324f7c90104cab36dc685e444464736f6c63430008140033",
    "immutableReferences": {},
    "source": "// SPDX-License-Identifier: MIT\npragma solidity ^0.8.20;\n\ncontract Credential {\n    struct CredentialData {\n        address holderName;\n        string credentialType;\n        string metadata;\n        address issuer;\n    }\n\n    mapping(address => CredentialData[]) public credentials;\n\n    event CredentialIssued(address indexed holder, string credentialType, string metadata);\n\n    function issueCredential(address holder, string memory credentialType, string memory metadata) public {\n        credentials[holder].push(CredentialData(holder, credentialType, metadata, msg.sender));\n        emit CredentialIssued(holder, credentialType, metadata);\n    }\n\n    function getCredentials(address holder) public view returns (CredentialData[] memory) {\n        return credentials[holder];\n    }\n}\n",
    "sourcePath": "/Users/debdeepbanerjee/Desktop/blockchain-vc-solution/authenticator-webapp/authenticator-backend/contracts/Credential.sol",
    "compiler": {
        "name": "solc",
        "version": "0.8.20+commit.a1b79de6.Emscripten.clang"
    },
    "schemaVersion": "3.4.16",
    "updatedAt": "2025-01-17T03:27:46.258Z",
    "networkType": "ethereum",
    "devdoc": {
        "kind": "dev",
        "methods": {},
        "version": 1
    },
    "userdoc": {
        "kind": "user",
        "methods": {},
        "version": 1
    }
}