{
  "contractName": "Credential",
  "abi": [
    {
      "inputs": [
        {
          "internalType": "string",
          "name": "dataHash",
          "type": "string"
        },
        {
          "internalType": "string",
          "name": "issuer",
          "type": "string"
        },
        {
          "internalType": "string",
          "name": "holder",
          "type": "string"
        }
      ],
      "name": "addCredential",
      "outputs": [],
      "stateMutability": "nonpayable",
      "type": "function"
    },
    {
      "inputs": [
        {
          "internalType": "string",
          "name": "dataHash",
          "type": "string"
        }
      ],
      "name": "verifyCredential",
      "outputs": [
        {
          "internalType": "bool",
          "name": "",
          "type": "bool"
        }
      ],
      "stateMutability": "view",
      "type": "function",
      "constant": true
    },
    {
      "inputs": [
        {
          "internalType": "string",
          "name": "dataHash",
          "type": "string"
        }
      ],
      "name": "revokeCredential",
      "outputs": [],
      "stateMutability": "nonpayable",
      "type": "function"
    }
  ],
  "bytecode": "0x608060405234801561000f575f80fd5b5061089b8061001d5f395ff3fe608060405234801561000f575f80fd5b506004361061003f575f3560e01c80635e9a2d281461004357806372d32dd61461005f578063bb3670ab1461007b575b5f80fd5b61005d6004803603810190610058919061037b565b6100ab565b005b610079600480360381019061007491906103c2565b610151565b005b6100956004803603810190610090919061037b565b6101f9565b6040516100a29190610480565b60405180910390f35b5f816040516100ba9190610505565b90815260200160405180910390206003015f9054906101000a900460ff16610117576040517f08c379a000000000000000000000000000000000000000000000000000000000815260040161010e90610575565b60405180910390fd5b5f80826040516101279190610505565b90815260200160405180910390206003015f6101000a81548160ff02191690831515021790555050565b6040518060800160405280838152602001828152602001848152602001600115158152505f846040516101849190610505565b90815260200160405180910390205f820151815f0190816101a59190610796565b5060208201518160010190816101bb9190610796565b5060408201518160020190816101d19190610796565b506060820151816003015f6101000a81548160ff021916908315150217905550905050505050565b5f80826040516102099190610505565b90815260200160405180910390206003015f9054906101000a900460ff169050919050565b5f604051905090565b5f80fd5b5f80fd5b5f80fd5b5f80fd5b5f601f19601f8301169050919050565b7f4e487b71000000000000000000000000000000000000000000000000000000005f52604160045260245ffd5b61028d82610247565b810181811067ffffffffffffffff821117156102ac576102ab610257565b5b80604052505050565b5f6102be61022e565b90506102ca8282610284565b919050565b5f67ffffffffffffffff8211156102e9576102e8610257565b5b6102f282610247565b9050602081019050919050565b828183375f83830152505050565b5f61031f61031a846102cf565b6102b5565b90508281526020810184848401111561033b5761033a610243565b5b6103468482856102ff565b509392505050565b5f82601f8301126103625761036161023f565b5b813561037284826020860161030d565b91505092915050565b5f602082840312156103905761038f610237565b5b5f82013567ffffffffffffffff8111156103ad576103ac61023b565b5b6103b98482850161034e565b91505092915050565b5f805f606084860312156103d9576103d8610237565b5b5f84013567ffffffffffffffff8111156103f6576103f561023b565b5b6104028682870161034e565b935050602084013567ffffffffffffffff8111156104235761042261023b565b5b61042f8682870161034e565b925050604084013567ffffffffffffffff8111156104505761044f61023b565b5b61045c8682870161034e565b9150509250925092565b5f8115159050919050565b61047a81610466565b82525050565b5f6020820190506104935f830184610471565b92915050565b5f81519050919050565b5f81905092915050565b5f5b838110156104ca5780820151818401526020810190506104af565b5f8484015250505050565b5f6104df82610499565b6104e981856104a3565b93506104f98185602086016104ad565b80840191505092915050565b5f61051082846104d5565b915081905092915050565b5f82825260208201905092915050565b7f43726564656e7469616c20697320616c7265616479207265766f6b65640000005f82015250565b5f61055f601d8361051b565b915061056a8261052b565b602082019050919050565b5f6020820190508181035f83015261058c81610553565b9050919050565b7f4e487b71000000000000000000000000000000000000000000000000000000005f52602260045260245ffd5b5f60028204905060018216806105d757607f821691505b6020821081036105ea576105e9610593565b5b50919050565b5f819050815f5260205f209050919050565b5f6020601f8301049050919050565b5f82821b905092915050565b5f6008830261064c7fffffffffffffffffffffffffffffffffffffffffffffffffffffffffffffffff82610611565b6106568683610611565b95508019841693508086168417925050509392505050565b5f819050919050565b5f819050919050565b5f61069a6106956106908461066e565b610677565b61066e565b9050919050565b5f819050919050565b6106b383610680565b6106c76106bf826106a1565b84845461061d565b825550505050565b5f90565b6106db6106cf565b6106e68184846106aa565b505050565b5b81811015610709576106fe5f826106d3565b6001810190506106ec565b5050565b601f82111561074e5761071f816105f0565b61072884610602565b81016020851015610737578190505b61074b61074385610602565b8301826106eb565b50505b505050565b5f82821c905092915050565b5f61076e5f1984600802610753565b1980831691505092915050565b5f610786838361075f565b9150826002028217905092915050565b61079f82610499565b67ffffffffffffffff8111156107b8576107b7610257565b5b6107c282546105c0565b6107cd82828561070d565b5f60209050601f8311600181146107fe575f84156107ec578287015190505b6107f6858261077b565b86555061085d565b601f19841661080c866105f0565b5f5b828110156108335784890151825560018201915060208501945060208101905061080e565b86831015610850578489015161084c601f89168261075f565b8355505b6001600288020188555050505b50505050505056fea264697066735822122088397642604d20b46794dc8114e63fb876cc15363bd0d4410bf502cacfe249d364736f6c63430008140033",
  "immutableReferences": {},
  "source": "// SPDX-License-Identifier: MIT\npragma solidity ^0.8.20;\n\ncontract Credential {\n    struct CredentialData {\n        string issuer;\n        string holder;\n        string dataHash;\n        bool isValid;\n    }\n\n    mapping(string => CredentialData) private credentials;\n\n    function addCredential(string memory dataHash, string memory issuer, string memory holder) public {\n        credentials[dataHash] = CredentialData(issuer, holder, dataHash, true);\n    }\n\n    function verifyCredential(string memory dataHash) public view returns (bool) {\n        return credentials[dataHash].isValid;\n    }\n\n    function revokeCredential(string memory dataHash) public {\n        require(credentials[dataHash].isValid, \"Credential is already revoked\");\n        credentials[dataHash].isValid = false;\n    }\n}\n",
  "sourcePath": "/Users/debdeepbanerjee/Desktop/blockchain-vc-solution/verifier-webapp/verifier-backend/contracts/Credential.sol",
  "compiler": {
    "name": "solc",
    "version": "0.8.20+commit.a1b79de6.Emscripten.clang"
  },
  "schemaVersion": "3.4.16",
  "updatedAt": "2025-01-18T13:04:38.513Z",
  "networkType": "ethereum",
  "devdoc": {
    "kind": "dev",
    "methods": {},
    "version": 1
  },
  "userdoc": {
    "kind": "user",
    "methods": {},
    "version": 1
  }
}