{
  "contractName": "Credential",
  "abi": [
    {
      "anonymous": false,
      "inputs": [
        {
          "indexed": true,
          "internalType": "bytes32",
          "name": "vcHash",
          "type": "bytes32"
        },
        {
          "indexed": false,
          "internalType": "string",
          "name": "holderName",
          "type": "string"
        },
        {
          "indexed": false,
          "internalType": "string",
          "name": "credentialType",
          "type": "string"
        },
        {
          "indexed": true,
          "internalType": "address",
          "name": "issuer",
          "type": "address"
        }
      ],
      "name": "CredentialIssued",
      "type": "event"
    },
    {
      "inputs": [
        {
          "internalType": "string",
          "name": "holderName",
          "type": "string"
        },
        {
          "internalType": "string",
          "name": "credentialType",
          "type": "string"
        },
        {
          "internalType": "string",
          "name": "metadata",
          "type": "string"
        }
      ],
      "name": "issueCredential",
      "outputs": [],
      "stateMutability": "nonpayable",
      "type": "function"
    },
    {
      "inputs": [
        {
          "internalType": "bytes32",
          "name": "vcHash",
          "type": "bytes32"
        }
      ],
      "name": "getCredential",
      "outputs": [
        {
          "internalType": "string",
          "name": "",
          "type": "string"
        },
        {
          "internalType": "string",
          "name": "",
          "type": "string"
        },
        {
          "internalType": "string",
          "name": "",
          "type": "string"
        },
        {
          "internalType": "address",
          "name": "",
          "type": "address"
        }
      ],
      "stateMutability": "view",
      "type": "function",
      "constant": true
    }
  ],
  "bytecode": "0x608060405234801561000f575f80fd5b50610b868061001d5f395ff3fe608060405234801561000f575f80fd5b5060043610610034575f3560e01c80638b1afa8014610038578063d1be488314610054575b5f80fd5b610052600480360381019061004d9190610576565b610087565b005b61006e6004803603810190610069919061064d565b6101de565b60405161007e9493929190610731565b60405180910390f35b5f8383833360405160200161009f9493929190610808565b60405160208183030381529060405280519060200120905060405180608001604052808581526020018481526020018381526020013373ffffffffffffffffffffffffffffffffffffffff168152505f808381526020019081526020015f205f820151815f0190816101119190610a4c565b5060208201518160010190816101279190610a4c565b50604082015181600201908161013d9190610a4c565b506060820151816003015f6101000a81548173ffffffffffffffffffffffffffffffffffffffff021916908373ffffffffffffffffffffffffffffffffffffffff1602179055509050503373ffffffffffffffffffffffffffffffffffffffff16817fccf0b1a449920db742f5f81b35ec98e03fa970395dd8138f0278933b41dcd50e86866040516101d0929190610b1b565b60405180910390a350505050565b60608060605f805f808781526020019081526020015f206040518060800160405290815f8201805461020f90610876565b80601f016020809104026020016040519081016040528092919081815260200182805461023b90610876565b80156102865780601f1061025d57610100808354040283529160200191610286565b820191905f5260205f20905b81548152906001019060200180831161026957829003601f168201915b5050505050815260200160018201805461029f90610876565b80601f01602080910402602001604051908101604052809291908181526020018280546102cb90610876565b80156103165780601f106102ed57610100808354040283529160200191610316565b820191905f5260205f20905b8154815290600101906020018083116102f957829003601f168201915b5050505050815260200160028201805461032f90610876565b80601f016020809104026020016040519081016040528092919081815260200182805461035b90610876565b80156103a65780601f1061037d576101008083540402835291602001916103a6565b820191905f5260205f20905b81548152906001019060200180831161038957829003601f168201915b50505050508152602001600382015f9054906101000a900473ffffffffffffffffffffffffffffffffffffffff1673ffffffffffffffffffffffffffffffffffffffff1673ffffffffffffffffffffffffffffffffffffffff16815250509050805f01518160200151826040015183606001519450945094509450509193509193565b5f604051905090565b5f80fd5b5f80fd5b5f80fd5b5f80fd5b5f601f19601f8301169050919050565b7f4e487b71000000000000000000000000000000000000000000000000000000005f52604160045260245ffd5b61048882610442565b810181811067ffffffffffffffff821117156104a7576104a6610452565b5b80604052505050565b5f6104b9610429565b90506104c5828261047f565b919050565b5f67ffffffffffffffff8211156104e4576104e3610452565b5b6104ed82610442565b9050602081019050919050565b828183375f83830152505050565b5f61051a610515846104ca565b6104b0565b9050828152602081018484840111156105365761053561043e565b5b6105418482856104fa565b509392505050565b5f82601f83011261055d5761055c61043a565b5b813561056d848260208601610508565b91505092915050565b5f805f6060848603121561058d5761058c610432565b5b5f84013567ffffffffffffffff8111156105aa576105a9610436565b5b6105b686828701610549565b935050602084013567ffffffffffffffff8111156105d7576105d6610436565b5b6105e386828701610549565b925050604084013567ffffffffffffffff81111561060457610603610436565b5b61061086828701610549565b9150509250925092565b5f819050919050565b61062c8161061a565b8114610636575f80fd5b50565b5f8135905061064781610623565b92915050565b5f6020828403121561066257610661610432565b5b5f61066f84828501610639565b91505092915050565b5f81519050919050565b5f82825260208201905092915050565b5f5b838110156106af578082015181840152602081019050610694565b5f8484015250505050565b5f6106c482610678565b6106ce8185610682565b93506106de818560208601610692565b6106e781610442565b840191505092915050565b5f73ffffffffffffffffffffffffffffffffffffffff82169050919050565b5f61071b826106f2565b9050919050565b61072b81610711565b82525050565b5f6080820190508181035f83015261074981876106ba565b9050818103602083015261075d81866106ba565b9050818103604083015261077181856106ba565b90506107806060830184610722565b95945050505050565b5f81905092915050565b5f61079d82610678565b6107a78185610789565b93506107b7818560208601610692565b80840191505092915050565b5f8160601b9050919050565b5f6107d9826107c3565b9050919050565b5f6107ea826107cf565b9050919050565b6108026107fd82610711565b6107e0565b82525050565b5f6108138287610793565b915061081f8286610793565b915061082b8285610793565b915061083782846107f1565b60148201915081905095945050505050565b7f4e487b71000000000000000000000000000000000000000000000000000000005f52602260045260245ffd5b5f600282049050600182168061088d57607f821691505b6020821081036108a05761089f610849565b5b50919050565b5f819050815f5260205f209050919050565b5f6020601f8301049050919050565b5f82821b905092915050565b5f600883026109027fffffffffffffffffffffffffffffffffffffffffffffffffffffffffffffffff826108c7565b61090c86836108c7565b95508019841693508086168417925050509392505050565b5f819050919050565b5f819050919050565b5f61095061094b61094684610924565b61092d565b610924565b9050919050565b5f819050919050565b61096983610936565b61097d61097582610957565b8484546108d3565b825550505050565b5f90565b610991610985565b61099c818484610960565b505050565b5b818110156109bf576109b45f82610989565b6001810190506109a2565b5050565b601f821115610a04576109d5816108a6565b6109de846108b8565b810160208510156109ed578190505b610a016109f9856108b8565b8301826109a1565b50505b505050565b5f82821c905092915050565b5f610a245f1984600802610a09565b1980831691505092915050565b5f610a3c8383610a15565b9150826002028217905092915050565b610a5582610678565b67ffffffffffffffff811115610a6e57610a6d610452565b5b610a788254610876565b610a838282856109c3565b5f60209050601f831160018114610ab4575f8415610aa2578287015190505b610aac8582610a31565b865550610b13565b601f198416610ac2866108a6565b5f5b82811015610ae957848901518255600182019150602085019450602081019050610ac4565b86831015610b065784890151610b02601f891682610a15565b8355505b6001600288020188555050505b505050505050565b5f6040820190508181035f830152610b3381856106ba565b90508181036020830152610b4781846106ba565b9050939250505056fea26469706673582212206247bf0bf5dd07cdd5182355715107a1e58dd3b02af3a3d19b8dca9382aadad164736f6c63430008140033",
  "immutableReferences": {},
  "source": "// SPDX-License-Identifier: MIT\npragma solidity ^0.8.20;\n\ncontract Credential {\n    struct VC {\n        string holderName;\n        string credentialType;\n        string metadata;\n        address issuer;\n    }\n\n    mapping(bytes32 => VC) private credentials;\n\n    event CredentialIssued(bytes32 indexed vcHash, string holderName, string credentialType, address indexed issuer);\n\n    function issueCredential(\n        string memory holderName,\n        string memory credentialType,\n        string memory metadata\n    ) public {\n        bytes32 vcHash = keccak256(abi.encodePacked(holderName, credentialType, metadata, msg.sender));\n        credentials[vcHash] = VC(holderName, credentialType, metadata, msg.sender);\n        emit CredentialIssued(vcHash, holderName, credentialType, msg.sender);\n    }\n\n    function getCredential(bytes32 vcHash) public view returns (string memory, string memory, string memory, address) {\n        VC memory vc = credentials[vcHash];\n        return (vc.holderName, vc.credentialType, vc.metadata, vc.issuer);\n    }\n}\n",
  "sourcePath": "/Users/debdeepbanerjee/Desktop/blockchain-vc-solution/issuer-webapp/issuer-backend/contracts/Credential.sol",
  "compiler": {
    "name": "solc",
    "version": "0.8.20+commit.a1b79de6.Emscripten.clang"
  },
  "schemaVersion": "3.4.16",
  "updatedAt": "2025-01-17T02:36:38.041Z",
  "networkType": "ethereum",
  "devdoc": {
    "kind": "dev",
    "methods": {},
    "version": 1
  },
  "userdoc": {
    "kind": "user",
    "methods": {},
    "version": 1
  }
}