{
  "contractName": "SocialFinance",
  "abi": [
    {
      "inputs": [],
      "stateMutability": "nonpayable",
      "type": "constructor"
    },
    {
      "anonymous": false,
      "inputs": [
        {
          "indexed": true,
          "internalType": "address",
          "name": "user",
          "type": "address"
        },
        {
          "indexed": false,
          "internalType": "uint256",
          "name": "amount",
          "type": "uint256"
        }
      ],
      "name": "FundsDeposited",
      "type": "event"
    },
    {
      "anonymous": false,
      "inputs": [
        {
          "indexed": true,
          "internalType": "address",
          "name": "user",
          "type": "address"
        },
        {
          "indexed": false,
          "internalType": "uint256",
          "name": "amount",
          "type": "uint256"
        }
      ],
      "name": "FundsWithdrawn",
      "type": "event"
    },
    {
      "inputs": [
        {
          "internalType": "address",
          "name": "",
          "type": "address"
        }
      ],
      "name": "balances",
      "outputs": [
        {
          "internalType": "uint256",
          "name": "",
          "type": "uint256"
        }
      ],
      "stateMutability": "view",
      "type": "function"
    },
    {
      "inputs": [],
      "name": "owner",
      "outputs": [
        {
          "internalType": "address",
          "name": "",
          "type": "address"
        }
      ],
      "stateMutability": "view",
      "type": "function"
    },
    {
      "inputs": [
        {
          "internalType": "address",
          "name": "",
          "type": "address"
        }
      ],
      "name": "registeredUsers",
      "outputs": [
        {
          "internalType": "bool",
          "name": "",
          "type": "bool"
        }
      ],
      "stateMutability": "view",
      "type": "function"
    },
    {
      "inputs": [
        {
          "internalType": "address",
          "name": "user",
          "type": "address"
        }
      ],
      "name": "registerUser",
      "outputs": [],
      "stateMutability": "nonpayable",
      "type": "function"
    },
    {
      "inputs": [],
      "name": "depositFunds",
      "outputs": [],
      "stateMutability": "payable",
      "type": "function"
    },
    {
      "inputs": [
        {
          "internalType": "uint256",
          "name": "amount",
          "type": "uint256"
        }
      ],
      "name": "withdrawFunds",
      "outputs": [],
      "stateMutability": "nonpayable",
      "type": "function"
    },
    {
      "inputs": [
        {
          "internalType": "address",
          "name": "user",
          "type": "address"
        }
      ],
      "name": "getBalance",
      "outputs": [
        {
          "internalType": "uint256",
          "name": "",
          "type": "uint256"
        }
      ],
      "stateMutability": "view",
      "type": "function"
    },
    {
      "inputs": [],
      "name": "transferRemainingBalance",
      "outputs": [],
      "stateMutability": "nonpayable",
      "type": "function"
    }
  ],
  "bytecode": "0x608060405234801561000f575f80fd5b503360025f6101000a81548173ffffffffffffffffffffffffffffffffffffffff021916908373ffffffffffffffffffffffffffffffffffffffff160217905550610bb78061005d5f395ff3fe60806040526004361061007a575f3560e01c80638da5cb5b1161004d5780638da5cb5b1461014657806398ee61af14610170578063e2c41dbc14610186578063f8b2cb4f146101905761007a565b80630e50cee51461007e578063155dd5ee146100ba5780632199d5cd146100e257806327e235e31461010a575b5f80fd5b348015610089575f80fd5b506100a4600480360381019061009f91906107c0565b6101cc565b6040516100b19190610805565b60405180910390f35b3480156100c5575f80fd5b506100e060048036038101906100db9190610851565b6101e9565b005b3480156100ed575f80fd5b50610108600480360381019061010391906107c0565b6103d8565b005b348015610115575f80fd5b50610130600480360381019061012b91906107c0565b6104be565b60405161013d919061088b565b60405180910390f35b348015610151575f80fd5b5061015a6104d2565b60405161016791906108b3565b60405180910390f35b34801561017b575f80fd5b506101846104f7565b005b61018e6105f2565b005b34801561019b575f80fd5b506101b660048036038101906101b191906107c0565b61071d565b6040516101c3919061088b565b60405180910390f35b6001602052805f5260405f205f915054906101000a900460ff1681565b60015f3373ffffffffffffffffffffffffffffffffffffffff1673ffffffffffffffffffffffffffffffffffffffff1681526020019081526020015f205f9054906101000a900460ff16610272576040517f08c379a00000000000000000000000000000000000000000000000000000000081526004016102699061094c565b60405180910390fd5b805f803373ffffffffffffffffffffffffffffffffffffffff1673ffffffffffffffffffffffffffffffffffffffff1681526020019081526020015f205410156102f1576040517f08c379a00000000000000000000000000000000000000000000000000000000081526004016102e8906109b4565b60405180910390fd5b805f803373ffffffffffffffffffffffffffffffffffffffff1673ffffffffffffffffffffffffffffffffffffffff1681526020019081526020015f205f82825461033c91906109ff565b925050819055503373ffffffffffffffffffffffffffffffffffffffff166108fc8290811502906040515f60405180830381858888f19350505050158015610386573d5f803e3d5ffd5b503373ffffffffffffffffffffffffffffffffffffffff167feaff4b37086828766ad3268786972c0cd24259d4c87a80f9d3963a3c3d999b0d826040516103cd919061088b565b60405180910390a250565b60025f9054906101000a900473ffffffffffffffffffffffffffffffffffffffff1673ffffffffffffffffffffffffffffffffffffffff163373ffffffffffffffffffffffffffffffffffffffff1614610467576040517f08c379a000000000000000000000000000000000000000000000000000000000815260040161045e90610aa2565b60405180910390fd5b6001805f8373ffffffffffffffffffffffffffffffffffffffff1673ffffffffffffffffffffffffffffffffffffffff1681526020019081526020015f205f6101000a81548160ff02191690831515021790555050565b5f602052805f5260405f205f915090505481565b60025f9054906101000a900473ffffffffffffffffffffffffffffffffffffffff1681565b60025f9054906101000a900473ffffffffffffffffffffffffffffffffffffffff1673ffffffffffffffffffffffffffffffffffffffff163373ffffffffffffffffffffffffffffffffffffffff1614610586576040517f08c379a000000000000000000000000000000000000000000000000000000000815260040161057d90610aa2565b60405180910390fd5b5f47905060025f9054906101000a900473ffffffffffffffffffffffffffffffffffffffff1673ffffffffffffffffffffffffffffffffffffffff166108fc8290811502906040515f60405180830381858888f193505050501580156105ee573d5f803e3d5ffd5b5050565b60015f3373ffffffffffffffffffffffffffffffffffffffff1673ffffffffffffffffffffffffffffffffffffffff1681526020019081526020015f205f9054906101000a900460ff1661067b576040517f08c379a000000000000000000000000000000000000000000000000000000000815260040161067290610b30565b60405180910390fd5b345f803373ffffffffffffffffffffffffffffffffffffffff1673ffffffffffffffffffffffffffffffffffffffff1681526020019081526020015f205f8282546106c69190610b4e565b925050819055503373ffffffffffffffffffffffffffffffffffffffff167f543ba50a5eec5e6178218e364b1d0f396157b3c8fa278522c2cb7fd99407d47434604051610713919061088b565b60405180910390a2565b5f805f8373ffffffffffffffffffffffffffffffffffffffff1673ffffffffffffffffffffffffffffffffffffffff1681526020019081526020015f20549050919050565b5f80fd5b5f73ffffffffffffffffffffffffffffffffffffffff82169050919050565b5f61078f82610766565b9050919050565b61079f81610785565b81146107a9575f80fd5b50565b5f813590506107ba81610796565b92915050565b5f602082840312156107d5576107d4610762565b5b5f6107e2848285016107ac565b91505092915050565b5f8115159050919050565b6107ff816107eb565b82525050565b5f6020820190506108185f8301846107f6565b92915050565b5f819050919050565b6108308161081e565b811461083a575f80fd5b50565b5f8135905061084b81610827565b92915050565b5f6020828403121561086657610865610762565b5b5f6108738482850161083d565b91505092915050565b6108858161081e565b82525050565b5f60208201905061089e5f83018461087c565b92915050565b6108ad81610785565b82525050565b5f6020820190506108c65f8301846108a4565b92915050565b5f82825260208201905092915050565b7f596f75206d75737420626520612072656769737465726564207573657220746f5f8201527f2077697468647261772066756e64730000000000000000000000000000000000602082015250565b5f610936602f836108cc565b9150610941826108dc565b604082019050919050565b5f6020820190508181035f8301526109638161092a565b9050919050565b7f496e73756666696369656e742062616c616e63650000000000000000000000005f82015250565b5f61099e6014836108cc565b91506109a98261096a565b602082019050919050565b5f6020820190508181035f8301526109cb81610992565b9050919050565b7f4e487b71000000000000000000000000000000000000000000000000000000005f52601160045260245ffd5b5f610a098261081e565b9150610a148361081e565b9250828203905081811115610a2c57610a2b6109d2565b5b92915050565b7f4f6e6c7920746865206f776e65722063616e2063616c6c20746869732066756e5f8201527f6374696f6e000000000000000000000000000000000000000000000000000000602082015250565b5f610a8c6025836108cc565b9150610a9782610a32565b604082019050919050565b5f6020820190508181035f830152610ab981610a80565b9050919050565b7f596f75206d75737420626520612072656769737465726564207573657220746f5f8201527f206465706f7369742066756e6473000000000000000000000000000000000000602082015250565b5f610b1a602e836108cc565b9150610b2582610ac0565b604082019050919050565b5f6020820190508181035f830152610b4781610b0e565b9050919050565b5f610b588261081e565b9150610b638361081e565b9250828201905080821115610b7b57610b7a6109d2565b5b9291505056fea2646970667358221220123af9d3e064767e3e2bd004db15b837ae625c9e6e6d9519cd3ae8bd36eb145564736f6c63430008140033",
  "immutableReferences": {},
  "source": "// SPDX-License-Identifier: UNLICENSED\npragma solidity ^0.8.20;\n\ncontract SocialFinance {\n    // Declare state variables for tracking users' funds and balances\n    mapping(address => uint256) public balances;\n    mapping(address => bool) public registeredUsers;\n    \n    address public owner;\n    \n    // Event to emit when a user deposits funds\n    event FundsDeposited(address indexed user, uint256 amount);\n    \n    // Event to emit when a user withdraws funds\n    event FundsWithdrawn(address indexed user, uint256 amount);\n    \n    // Constructor to set the owner of the contract\n    constructor() {\n        owner = msg.sender;\n    }\n    \n    // Modifier to restrict access to only the owner\n    modifier onlyOwner() {\n        require(msg.sender == owner, \"Only the owner can call this function\");\n        _;\n    }\n    \n    // Function to register a user\n    function registerUser(address user) public onlyOwner {\n        registeredUsers[user] = true;\n    }\n    \n    // Function for users to deposit funds\n    function depositFunds() public payable {\n        require(registeredUsers[msg.sender], \"You must be a registered user to deposit funds\");\n        balances[msg.sender] += msg.value;\n        emit FundsDeposited(msg.sender, msg.value);\n    }\n    \n    // Function to allow users to withdraw funds\n    function withdrawFunds(uint256 amount) public {\n        require(registeredUsers[msg.sender], \"You must be a registered user to withdraw funds\");\n        require(balances[msg.sender] >= amount, \"Insufficient balance\");\n        \n        balances[msg.sender] -= amount;\n        payable(msg.sender).transfer(amount);\n        \n        emit FundsWithdrawn(msg.sender, amount);\n    }\n    \n    // Function to get the balance of a user\n    function getBalance(address user) public view returns (uint256) {\n        return balances[user];\n    }\n    \n    // Function to transfer remaining contract balance to the owner\n    function transferRemainingBalance() public onlyOwner {\n        uint256 contractBalance = address(this).balance;\n        payable(owner).transfer(contractBalance);\n    }\n}\n",
  "sourcePath": "/Users/debdeepbanerjee/Desktop/blockchain_iitk25/backend/contracts/SocialFinance.sol",
  "compiler": {
    "name": "solc",
    "version": "0.8.20+commit.a1b79de6.Emscripten.clang"
  },
  "schemaVersion": "3.4.16",
  "updatedAt": "2025-01-10T16:01:55.816Z",
  "devdoc": {
    "kind": "dev",
    "methods": {},
    "version": 1
  },
  "userdoc": {
    "kind": "user",
    "methods": {},
    "version": 1
  }
}